:100000000C9426010C943B010C943B010C943B0195
:100010000C943B010C943B010C943B010C943B0170
:100020000C943B010C943B010C943B010C943B0160
:100030000C943B010C943B010C943B010C943B0150
:100040000C943B010C943B010C943B010C943B0140
:100050000C943B018901A601C301E001FC01FC01F4
:10006000FC01FC01FC01FC01FC01FC01FC01FC01A8
:10007000FC01FC01FC01FC01FC01FC01FC01FC0198
:10008000FC01FC01FC01FC01FC01FC01FC01FC0188
:10009000FC01FC018901A601C301E0010A021F0263
:1000A000340249025E025E025E025E025E025E028F
:1000B0005E025E025E025E025E025E025E025E0240
:1000C0005E025E025E025E025E025E025E025E0230
:1000D0005E025E025E025E025E025E020A021F02B3
:1000E000340249026B026D026F02710272027202E7
:1000F0007202720272027202720272027202720260
:10010000720272027202720272027202720272024F
:10011000720272027202720272027202720272023F
:10012000720272026B026D026F0271027E02800225
:10013000820284028502850285028502850285028B
:100140008502850285028502850285028502850277
:100150008502850285028502850285028502850267
:100160008502850285028502850285027E02800263
:10017000820284029202B202D202F202110311033D
:1001800011031103110311031103110311031103CF
:1001900011031103110311031103110311031103BF
:1001A00011031103110311031103110311031103AF
:1001B000110311039202B202D202F2024C03530362
:1001C0005A036103670367036703670367036703F2
:1001D00067036703670367036703670367036703CF
:1001E00067036703670367036703670367036703BF
:1001F0006703670367036703670367034C035303DE
:100200005A036103A103A803AF03B603BC03BC03F5
:10021000BC03BC03BC03BC03BC03BC03BC03BC03E6
:10022000BC03BC03BC03BC03BC03BC03BC03BC03D6
:10023000BC03BC03BC03BC03BC03BC03BC03BC03C6
:10024000BC03BC03A103A803AF03B60311241FBE64
:10025000CFE5D8E0DEBFCDBF10E0A0E6B0E0E6E538
:10026000F8E002C005900D92A037B107D9F70E94BF
:100270003D010C9429040C94000060E081E40E948C
:10028000660141E060E081E40E94860240E064E4AF
:1002900081E00E94BD03D1E060E081E40E946A0138
:1002A0008111FACFCD2F2C2F44E460E08D2F0E94D6
:1002B000D5032FEF89E698E1215080409040E1F787
:1002C00000C00000CF5FCA3071F7E6CF40E00E9467
:1002D0007D010895CF93DF93C82FD62F0E94FD0193
:1002E0008FE097E20197F1F700C000006D2F8C2F8F
:1002F0000E94FD01DF91CF91089590E0FC01E1544F
:10030000F109E432F10508F077C0E65DFF4F0C9487
:100310002304413069F42AB381E090E0AC0102C0CB
:10032000440F551F6A95E2F7BA01622B6ABB089524
:100330002AB381E090E0AC0102C0440F551F6A95DA
:10034000E2F7BA01609562236ABB0895413069F40F
:1003500027B381E090E0AC0102C0440F551F6A95BD
:10036000E2F7BA01622B67BB089527B381E090E002
:10037000AC0102C0440F551F6A95E2F7BA016095BF
:10038000622367BB0895413069F424B381E090E0B3
:10039000AC0102C0440F551F6A95E2F7BA01622B07
:1003A00064BB089524B381E090E0AC0102C0440F27
:1003B000551F6A95E2F7BA016095622364BB089500
:1003C000413069F421B381E090E0AC0102C0440FF8
:1003D000551F6A95E2F7BA01622B61BB089521B3FC
:1003E00081E090E0AC0102C0440F551F6A95E2F72E
:1003F000BA016095622361BB0895482F50E0FA016D
:10040000E154F109E432F10508F058C0E25BFF4F16
:100410000C94230429B341E050E0062E02C0440F9F
:10042000551F0A94E2F730E024233523A901062E54
:1004300002C0559547950A94E2F7CA01089526B37C
:1004400041E050E0062E02C0440F551F0A94E2F727
:1004500030E024233523A901062E02C05595479587
:100460000A94E2F7CA01089523B341E050E0062E52
:1004700002C0440F551F0A94E2F730E024233523CD
:10048000A901062E02C0559547950A94E2F7CA01C4
:10049000089520B341E050E0062E02C0440F551FDE
:1004A0000A94E2F730E024233523A901062E02C086
:1004B000559547950A94E2F7CA01089580E008959A
:1004C00090E0FC01E154F109E432F10558F4EE58F2
:1004D000FF4F0C9423046ABB089567BB089564BB67
:1004E000089561BB089590E0FC01E154F109E43204
:1004F000F10558F4EA56FF4F0C9423046BBB0895A2
:1005000068BB089565BB089562BB089590E0FC0147
:10051000E154F109E432F10508F083C0E654FF4FDD
:100520000C942304413081F42BB381E090E0AC01C2
:1005300002C0440F551F6A95E2F7BA01622B6BBBEC
:1005400080B78B7F80BF08952BB381E090E0AC0132
:1005500002C0440F551F6A95E2F7BA016095622305
:100560006BBB0895413081F428B381E090E0AC0189
:1005700002C0440F551F6A95E2F7BA01622B68BBAF
:1005800080B78B7F80BF089528B381E090E0AC01F5
:1005900002C0440F551F6A95E2F7BA0160956223C5
:1005A00068BB0895413081F425B381E090E0AC014F
:1005B00002C0440F551F6A95E2F7BA01622B65BB72
:1005C00080B78B7F80BF089525B381E090E0AC01B8
:1005D00002C0440F551F6A95E2F7BA016095622385
:1005E00065BB0895413081F422B381E090E0AC0115
:1005F00002C0440F551F6A95E2F7BA01622B62BB35
:1006000080B78B7F80BF089522B381E090E0AC017A
:1006100002C0440F551F6A95E2F7BA016095622344
:1006200062BB0895CF93C82F6130A1F441E064E02C
:100630000E947D0141E065E08C2F0E947D0141E038
:1006400066E08C2F0E947D0141E067E08C2F0E94C4
:100650007D0113C040E064E00E947D0140E065E060
:100660008C2F0E947D0140E066E08C2F0E947D016E
:1006700040E067E08C2F0E947D01CF910895629544
:10068000607F90E0FC01E154F109E432F105F8F4F7
:10069000E252FF4F0C9423048BB38F708BBB8BB350
:1006A000682B6BBB089588B38F7088BB88B3682BA9
:1006B00068BB089585B38F7085BB85B3682B65BB18
:1006C000089582B38F7082BB82B3682B62BB08959A
:1006D000CF93C82F6130A1F441E060E00E947D011A
:1006E00041E061E08C2F0E947D0141E062E08C2FAF
:1006F0000E947D0141E063E08C2F0E947D0113C0C8
:1007000040E060E00E947D0140E061E08C2F0E94AB
:100710007D0140E062E08C2F0E947D0140E063E0BB
:100720008C2F0E947D01CF9108956F7090E0FC01A5
:10073000E154F109E432F105F8F4EE5FFE4F0C9458
:1007400023048BB3807F8BBB8BB3682B6BBB08956B
:1007500088B3807F88BB88B3682B68BB089585B356
:10076000807F85BB85B3682B65BB089582B3807F8E
:1007700082BB82B3682B62BB0895962F81110EC095
:10078000411105C061E0892F0E946803089541303E
:1007900059F461E0892F0E9412030895813021F4F9
:1007A0006FEF892F0E9460020895CF93DF93CDB73A
:1007B000DEB72A970FB6F894DEBF0FBECDBF81110A
:1007C0000EC0611105C0622F842F0E94950332C0B4
:1007D000613081F5622F842F0E943F032BC081304E
:1007E00049F52A30A0F48AE0E0E6F0E0DE01119657
:1007F00001900D928A95E1F7E1E0F0E0EC0FFD1F2A
:10080000E20FF11D6081842F0E94730213C086E005
:10081000EAE6F0E0DE01119601900D928A95E1F78B
:10082000E1E0F0E0EC0FFD1FE20FF11D6081842F8D
:100830000E9473022A960FB6F894DEBF0FBECDBF9A
:10084000DF91CF910895EE0FFF1F0590F491E02DF9
:060850000994F894FFCFAB
:100856003F065B4F666D7D077F6F771F395E797147
:00000001FF
